{
  "_format": "hh-sol-artifact-1",
  "contractName": "VotingMachine",
  "sourceName": "contracts/VotingMachine.sol",
  "abi": [
    {
      "anonymous": false,
      "inputs": [
        {
          "indexed": false,
          "internalType": "uint256",
          "name": "PID",
          "type": "uint256"
        },
        {
          "indexed": false,
          "internalType": "address",
          "name": "creator",
          "type": "address"
        }
      ],
      "name": "ProposalCreated",
      "type": "event"
    },
    {
      "inputs": [
        {
          "internalType": "uint256",
          "name": "PID",
          "type": "uint256"
        },
        {
          "internalType": "address",
          "name": "user",
          "type": "address"
        }
      ],
      "name": "checkUserVoted",
      "outputs": [
        {
          "internalType": "bool",
          "name": "",
          "type": "bool"
        }
      ],
      "stateMutability": "view",
      "type": "function"
    },
    {
      "inputs": [
        {
          "internalType": "string",
          "name": "description",
          "type": "string"
        },
        {
          "internalType": "uint256",
          "name": "validity",
          "type": "uint256"
        }
      ],
      "name": "createProposal",
      "outputs": [
        {
          "internalType": "uint256",
          "name": "",
          "type": "uint256"
        }
      ],
      "stateMutability": "nonpayable",
      "type": "function"
    },
    {
      "inputs": [],
      "name": "getListOfProposal",
      "outputs": [
        {
          "internalType": "uint256[]",
          "name": "",
          "type": "uint256[]"
        }
      ],
      "stateMutability": "view",
      "type": "function"
    },
    {
      "inputs": [
        {
          "internalType": "uint256",
          "name": "PID",
          "type": "uint256"
        }
      ],
      "name": "getProposalDetails",
      "outputs": [
        {
          "internalType": "string",
          "name": "",
          "type": "string"
        },
        {
          "internalType": "uint256",
          "name": "",
          "type": "uint256"
        },
        {
          "internalType": "uint256",
          "name": "",
          "type": "uint256"
        },
        {
          "internalType": "uint256",
          "name": "",
          "type": "uint256"
        },
        {
          "internalType": "uint256",
          "name": "",
          "type": "uint256"
        }
      ],
      "stateMutability": "view",
      "type": "function"
    },
    {
      "inputs": [
        {
          "internalType": "uint256",
          "name": "PID",
          "type": "uint256"
        }
      ],
      "name": "getProposalStatus",
      "outputs": [
        {
          "internalType": "string",
          "name": "",
          "type": "string"
        }
      ],
      "stateMutability": "view",
      "type": "function"
    },
    {
      "inputs": [
        {
          "internalType": "uint256",
          "name": "PID",
          "type": "uint256"
        }
      ],
      "name": "voteTally",
      "outputs": [
        {
          "internalType": "uint256",
          "name": "",
          "type": "uint256"
        },
        {
          "internalType": "uint256",
          "name": "",
          "type": "uint256"
        }
      ],
      "stateMutability": "view",
      "type": "function"
    },
    {
      "inputs": [
        {
          "internalType": "uint256",
          "name": "PID",
          "type": "uint256"
        },
        {
          "internalType": "bool",
          "name": "vote",
          "type": "bool"
        }
      ],
      "name": "voting",
      "outputs": [],
      "stateMutability": "nonpayable",
      "type": "function"
    }
  ],
  "bytecode": "0x6080604052600160005534801561001557600080fd5b506110c6806100256000396000f3fe608060405234801561001057600080fd5b506004361061007d5760003560e01c80633b4d01a71161005b5780633b4d01a714610101578063401853b7146101355780635a4f459a1461016557806378548399146101815761007d565b806335facf7814610082578063390071c3146100b25780633a5d8a00146100e3575b600080fd5b61009c600480360381019061009791906108f6565b6101b1565b6040516100a99190610c75565b60405180910390f35b6100cc60048036038101906100c7919061094a565b6102c6565b6040516100da929190610cb9565b60405180910390f35b6100eb61030c565b6040516100f89190610b7c565b60405180910390f35b61011b6004803603810190610116919061094a565b610364565b60405161012c959493929190610bdb565b60405180910390f35b61014f600480360381019061014a919061094a565b61048b565b60405161015c9190610bb9565b60405180910390f35b61017f600480360381019061017a91906109af565b610546565b005b61019b60048036038101906101969190610973565b610741565b6040516101a89190610b9e565b60405180910390f35b6000805460016000805481526020019081526020016000206000018190555082600160008054815260200190815260200160002060010190805190602001906101fb9291906107ac565b50620151808261020b9190610e1f565b600160008054815260200190815260200160002060030181905550426001600080548152602001908152602001600020600201819055507fcd423cc1203c0af96b9b3d68d73b3064a69de2d14450bb7181c5e5df2132b35860005433604051610275929190610c90565b60405180910390a1600260005490806001815401808255809150506001900390600052602060002001600090919091909150556000808154809291906102ba90610f35565b91905055905092915050565b6000806000600160008581526020019081526020016000206004015490506000600160008681526020019081526020016000206005015490508181935093505050915091565b6060600280548060200260200160405190810160405280929190818152602001828054801561035a57602002820191906000526020600020905b815481526020019060010190808311610346575b5050505050905090565b606060008060008060016000878152602001908152602001600020600101600160008881526020019081526020016000206002015462015180600160008a8152602001908152602001600020600301546103be9190610dee565b600160008a815260200190815260200160002060040154600160008b8152602001908152602001600020600501548480546103f890610f03565b80601f016020809104026020016040519081016040528092919081815260200182805461042490610f03565b80156104715780601f1061044657610100808354040283529160200191610471565b820191906000526020600020905b81548152906001019060200180831161045457829003601f168201915b505050505094509450945094509450945091939590929450565b6060600160008381526020019081526020016000206002015460016000848152602001908152602001600020600301546104c59190610d98565b4211610508576040518060400160405280600681526020017f41637469766500000000000000000000000000000000000000000000000000008152509050610541565b6040518060400160405280600681526020017f436c6f736564000000000000000000000000000000000000000000000000000081525090505b919050565b6001600083815260200190815260200160002060020154600160008481526020019081526020016000206003015461057e9190610d98565b4211156105c0576040517f08c379a00000000000000000000000000000000000000000000000000000000081526004016105b790610c55565b60405180910390fd5b600015156001600084815260200190815260200160002060060160003373ffffffffffffffffffffffffffffffffffffffff1673ffffffffffffffffffffffffffffffffffffffff16815260200190815260200160002060009054906101000a900460ff16151514610667576040517f08c379a000000000000000000000000000000000000000000000000000000000815260040161065e90610c35565b60405180910390fd5b6001151581151514156106a55760016000838152602001908152602001600020600401600081548092919061069b90610f35565b91905055506106d2565b6001600083815260200190815260200160002060050160008154809291906106cc90610f35565b91905055505b600180600084815260200190815260200160002060060160003373ffffffffffffffffffffffffffffffffffffffff1673ffffffffffffffffffffffffffffffffffffffff16815260200190815260200160002060006101000a81548160ff0219169083151502179055505050565b60006001600084815260200190815260200160002060060160008373ffffffffffffffffffffffffffffffffffffffff1673ffffffffffffffffffffffffffffffffffffffff16815260200190815260200160002060009054906101000a900460ff16905092915050565b8280546107b890610f03565b90600052602060002090601f0160209004810192826107da5760008555610821565b82601f106107f357805160ff1916838001178555610821565b82800160010185558215610821579182015b82811115610820578251825591602001919060010190610805565b5b50905061082e9190610832565b5090565b5b8082111561084b576000816000905550600101610833565b5090565b600061086261085d84610d13565b610ce2565b90508281526020810184848401111561087a57600080fd5b610885848285610ec1565b509392505050565b60008135905061089c8161104b565b92915050565b6000813590506108b181611062565b92915050565b600082601f8301126108c857600080fd5b81356108d884826020860161084f565b91505092915050565b6000813590506108f081611079565b92915050565b6000806040838503121561090957600080fd5b600083013567ffffffffffffffff81111561092357600080fd5b61092f858286016108b7565b9250506020610940858286016108e1565b9150509250929050565b60006020828403121561095c57600080fd5b600061096a848285016108e1565b91505092915050565b6000806040838503121561098657600080fd5b6000610994858286016108e1565b92505060206109a58582860161088d565b9150509250929050565b600080604083850312156109c257600080fd5b60006109d0858286016108e1565b92505060206109e1858286016108a2565b9150509250929050565b60006109f78383610b5e565b60208301905092915050565b610a0c81610e79565b82525050565b6000610a1d82610d53565b610a278185610d76565b9350610a3283610d43565b8060005b83811015610a63578151610a4a88826109eb565b9750610a5583610d69565b925050600181019050610a36565b5085935050505092915050565b610a7981610e8b565b82525050565b6000610a8a82610d5e565b610a948185610d87565b9350610aa4818560208601610ed0565b610aad8161103a565b840191505092915050565b6000610ac5602783610d87565b91507f557365722068617320616c726561647920766f74656420666f7220746865207060008301527f726f706f73616c000000000000000000000000000000000000000000000000006020830152604082019050919050565b6000610b2b601783610d87565b91507f566f74696e6720706572696f642068617320656e6465640000000000000000006000830152602082019050919050565b610b6781610eb7565b82525050565b610b7681610eb7565b82525050565b60006020820190508181036000830152610b968184610a12565b905092915050565b6000602082019050610bb36000830184610a70565b92915050565b60006020820190508181036000830152610bd38184610a7f565b905092915050565b600060a0820190508181036000830152610bf58188610a7f565b9050610c046020830187610b6d565b610c116040830186610b6d565b610c1e6060830185610b6d565b610c2b6080830184610b6d565b9695505050505050565b60006020820190508181036000830152610c4e81610ab8565b9050919050565b60006020820190508181036000830152610c6e81610b1e565b9050919050565b6000602082019050610c8a6000830184610b6d565b92915050565b6000604082019050610ca56000830185610b6d565b610cb26020830184610a03565b9392505050565b6000604082019050610cce6000830185610b6d565b610cdb6020830184610b6d565b9392505050565b6000604051905081810181811067ffffffffffffffff82111715610d0957610d0861100b565b5b8060405250919050565b600067ffffffffffffffff821115610d2e57610d2d61100b565b5b601f19601f8301169050602081019050919050565b6000819050602082019050919050565b600081519050919050565b600081519050919050565b6000602082019050919050565b600082825260208201905092915050565b600082825260208201905092915050565b6000610da382610eb7565b9150610dae83610eb7565b9250827fffffffffffffffffffffffffffffffffffffffffffffffffffffffffffffffff03821115610de357610de2610f7e565b5b828201905092915050565b6000610df982610eb7565b9150610e0483610eb7565b925082610e1457610e13610fad565b5b828204905092915050565b6000610e2a82610eb7565b9150610e3583610eb7565b9250817fffffffffffffffffffffffffffffffffffffffffffffffffffffffffffffffff0483118215151615610e6e57610e6d610f7e565b5b828202905092915050565b6000610e8482610e97565b9050919050565b60008115159050919050565b600073ffffffffffffffffffffffffffffffffffffffff82169050919050565b6000819050919050565b82818337600083830152505050565b60005b83811015610eee578082015181840152602081019050610ed3565b83811115610efd576000848401525b50505050565b60006002820490506001821680610f1b57607f821691505b60208210811415610f2f57610f2e610fdc565b5b50919050565b6000610f4082610eb7565b91507fffffffffffffffffffffffffffffffffffffffffffffffffffffffffffffffff821415610f7357610f72610f7e565b5b600182019050919050565b7f4e487b7100000000000000000000000000000000000000000000000000000000600052601160045260246000fd5b7f4e487b7100000000000000000000000000000000000000000000000000000000600052601260045260246000fd5b7f4e487b7100000000000000000000000000000000000000000000000000000000600052602260045260246000fd5b7f4e487b7100000000000000000000000000000000000000000000000000000000600052604160045260246000fd5b6000601f19601f8301169050919050565b61105481610e79565b811461105f57600080fd5b50565b61106b81610e8b565b811461107657600080fd5b50565b61108281610eb7565b811461108d57600080fd5b5056fea2646970667358221220771ebacd1262250fc7aa0fcf14d2ebaea3e36064f11d25d17544a7dc8f725e3d64736f6c63430008000033",
  "linkReferences": {},
  "deployedLinkReferences": {}
}